{
  "contractName": "mybook",
  "abi": [
    {
      "constant": true,
      "inputs": [
        {
          "name": "",
          "type": "uint256"
        }
      ],
      "name": "my",
      "outputs": [
        {
          "name": "state",
          "type": "uint8"
        },
        {
          "name": "a",
          "type": "address"
        },
        {
          "name": "isbn",
          "type": "uint256"
        },
        {
          "name": "author",
          "type": "string"
        },
        {
          "name": "bookname",
          "type": "string"
        }
      ],
      "payable": false,
      "stateMutability": "view",
      "type": "function"
    },
    {
      "constant": true,
      "inputs": [
        {
          "name": "",
          "type": "uint256"
        }
      ],
      "name": "s",
      "outputs": [
        {
          "name": "state",
          "type": "uint8"
        },
        {
          "name": "a",
          "type": "address"
        },
        {
          "name": "isbn",
          "type": "uint256"
        },
        {
          "name": "author",
          "type": "string"
        },
        {
          "name": "bookname",
          "type": "string"
        }
      ],
      "payable": false,
      "stateMutability": "view",
      "type": "function"
    },
    {
      "constant": true,
      "inputs": [
        {
          "name": "",
          "type": "uint256"
        }
      ],
      "name": "books",
      "outputs": [
        {
          "name": "state",
          "type": "uint8"
        },
        {
          "name": "a",
          "type": "address"
        },
        {
          "name": "isbn",
          "type": "uint256"
        },
        {
          "name": "author",
          "type": "string"
        },
        {
          "name": "bookname",
          "type": "string"
        }
      ],
      "payable": false,
      "stateMutability": "view",
      "type": "function"
    },
    {
      "constant": true,
      "inputs": [],
      "name": "bookscount",
      "outputs": [
        {
          "name": "",
          "type": "uint256"
        }
      ],
      "payable": false,
      "stateMutability": "view",
      "type": "function"
    },
    {
      "constant": false,
      "inputs": [
        {
          "name": "_isbn",
          "type": "uint256"
        },
        {
          "name": "_bookname",
          "type": "string"
        },
        {
          "name": "_author",
          "type": "string"
        }
      ],
      "name": "addBook",
      "outputs": [
        {
          "name": "",
          "type": "uint256"
        }
      ],
      "payable": false,
      "stateMutability": "nonpayable",
      "type": "function"
    },
    {
      "constant": true,
      "inputs": [],
      "name": "viewallbooks",
      "outputs": [
        {
          "components": [
            {
              "name": "state",
              "type": "uint8"
            },
            {
              "name": "a",
              "type": "address"
            },
            {
              "name": "isbn",
              "type": "uint256"
            },
            {
              "name": "author",
              "type": "string"
            },
            {
              "name": "bookname",
              "type": "string"
            }
          ],
          "name": "",
          "type": "tuple[]"
        }
      ],
      "payable": false,
      "stateMutability": "view",
      "type": "function"
    },
    {
      "constant": false,
      "inputs": [],
      "name": "mybooks",
      "outputs": [
        {
          "components": [
            {
              "name": "state",
              "type": "uint8"
            },
            {
              "name": "a",
              "type": "address"
            },
            {
              "name": "isbn",
              "type": "uint256"
            },
            {
              "name": "author",
              "type": "string"
            },
            {
              "name": "bookname",
              "type": "string"
            }
          ],
          "name": "",
          "type": "tuple[]"
        }
      ],
      "payable": false,
      "stateMutability": "nonpayable",
      "type": "function"
    }
  ],
  "bytecode": "0x60806040526000805534801561001457600080fd5b50611655806100246000396000f3fe608060405234801561001057600080fd5b506004361061007d5760003560e01c8063687440461161005b578063687440461461011a57806384ca2bec1461014e578063f8c208601461016c578063fab272491461018a5761007d565b8063028414f21461008257806311f6fafb146100b257806352efd685146100e6575b600080fd5b61009c600480360361009791908101906111bd565b6101a8565b6040516100a99190611430565b60405180910390f35b6100cc60048036036100c79190810190611194565b610316565b6040516100dd95949392919061144b565b60405180910390f35b61010060048036036100fb9190810190611194565b6104b6565b60405161011195949392919061144b565b60405180910390f35b610134600480360361012f9190810190611194565b610656565b60405161014595949392919061144b565b60405180910390f35b6101566107f6565b604051610163919061140e565b60405180910390f35b610174610cdd565b604051610181919061140e565b60405180910390f35b610192610efd565b60405161019f9190611430565b60405180910390f35b6000600160005401600081905550600180548091906001016101ca9190610f03565b506000600180808054905003815481106101e057fe5b906000526020600020906004020160000160006101000a81548160ff021916908360ff160217905550336001808080549050038154811061021d57fe5b906000526020600020906004020160000160016101000a81548173ffffffffffffffffffffffffffffffffffffffff021916908373ffffffffffffffffffffffffffffffffffffffff160217905550836001808080549050038154811061028057fe5b90600052602060002090600402016001018190555082600180808054905003815481106102a957fe5b906000526020600020906004020160030190805190602001906102cd929190610f35565b5081600180808054905003815481106102e257fe5b90600052602060002090600402016002019080519060200190610306929190610f35565b5060018054905090509392505050565b6002818154811061032357fe5b90600052602060002090600402016000915090508060000160009054906101000a900460ff16908060000160019054906101000a900473ffffffffffffffffffffffffffffffffffffffff1690806001015490806002018054600181600116156101000203166002900480601f01602080910402602001604051908101604052809291908181526020018280546001816001161561010002031660029004801561040e5780601f106103e35761010080835404028352916020019161040e565b820191906000526020600020905b8154815290600101906020018083116103f157829003601f168201915b505050505090806003018054600181600116156101000203166002900480601f0160208091040260200160405190810160405280929190818152602001828054600181600116156101000203166002900480156104ac5780601f10610481576101008083540402835291602001916104ac565b820191906000526020600020905b81548152906001019060200180831161048f57829003601f168201915b5050505050905085565b600381815481106104c357fe5b90600052602060002090600402016000915090508060000160009054906101000a900460ff16908060000160019054906101000a900473ffffffffffffffffffffffffffffffffffffffff1690806001015490806002018054600181600116156101000203166002900480601f0160208091040260200160405190810160405280929190818152602001828054600181600116156101000203166002900480156105ae5780601f10610583576101008083540402835291602001916105ae565b820191906000526020600020905b81548152906001019060200180831161059157829003601f168201915b505050505090806003018054600181600116156101000203166002900480601f01602080910402602001604051908101604052809291908181526020018280546001816001161561010002031660029004801561064c5780601f106106215761010080835404028352916020019161064c565b820191906000526020600020905b81548152906001019060200180831161062f57829003601f168201915b5050505050905085565b6001818154811061066357fe5b90600052602060002090600402016000915090508060000160009054906101000a900460ff16908060000160019054906101000a900473ffffffffffffffffffffffffffffffffffffffff1690806001015490806002018054600181600116156101000203166002900480601f01602080910402602001604051908101604052809291908181526020018280546001816001161561010002031660029004801561074e5780601f106107235761010080835404028352916020019161074e565b820191906000526020600020905b81548152906001019060200180831161073157829003601f168201915b505050505090806003018054600181600116156101000203166002900480601f0160208091040260200160405190810160405280929190818152602001828054600181600116156101000203166002900480156107ec5780601f106107c1576101008083540402835291602001916107ec565b820191906000526020600020905b8154815290600101906020018083116107cf57829003601f168201915b5050505050905085565b606060008090505b600180549050811015610abe573373ffffffffffffffffffffffffffffffffffffffff166001828154811061082f57fe5b906000526020600020906004020160000160019054906101000a900473ffffffffffffffffffffffffffffffffffffffff1673ffffffffffffffffffffffffffffffffffffffff161415610ab157600280548091906001016108919190610f03565b506001818154811061089f57fe5b906000526020600020906004020160000160009054906101000a900460ff166002600160028054905003815481106108d357fe5b906000526020600020906004020160000160006101000a81548160ff021916908360ff1602179055506001818154811061090957fe5b90600052602060002090600402016001015460026001600280549050038154811061093057fe5b9060005260206000209060040201600101819055506001818154811061095257fe5b906000526020600020906004020160030160026001600280549050038154811061097857fe5b906000526020600020906004020160030190805460018160011615610100020316600290046109a8929190610fb5565b50600181815481106109b657fe5b90600052602060002090600402016002016002600160028054905003815481106109dc57fe5b90600052602060002090600402016002019080546001816001161561010002031660029004610a0c929190610fb5565b5060018181548110610a1a57fe5b906000526020600020906004020160000160019054906101000a900473ffffffffffffffffffffffffffffffffffffffff16600260016002805490500381548110610a6157fe5b906000526020600020906004020160000160016101000a81548173ffffffffffffffffffffffffffffffffffffffff021916908373ffffffffffffffffffffffffffffffffffffffff1602179055505b80806001019150506107fe565b506002805480602002602001604051908101604052809291908181526020016000905b82821015610cd457838290600052602060002090600402016040518060a00160405290816000820160009054906101000a900460ff1660ff1660ff1681526020016000820160019054906101000a900473ffffffffffffffffffffffffffffffffffffffff1673ffffffffffffffffffffffffffffffffffffffff1673ffffffffffffffffffffffffffffffffffffffff16815260200160018201548152602001600282018054600181600116156101000203166002900480601f016020809104026020016040519081016040528092919081815260200182805460018160011615610100020316600290048015610c1a5780601f10610bef57610100808354040283529160200191610c1a565b820191906000526020600020905b815481529060010190602001808311610bfd57829003601f168201915b50505050508152602001600382018054600181600116156101000203166002900480601f016020809104026020016040519081016040528092919081815260200182805460018160011615610100020316600290048015610cbc5780601f10610c9157610100808354040283529160200191610cbc565b820191906000526020600020905b815481529060010190602001808311610c9f57829003601f168201915b50505050508152505081526020019060010190610ae1565b50505050905090565b60606001805480602002602001604051908101604052809291908181526020016000905b82821015610ef457838290600052602060002090600402016040518060a00160405290816000820160009054906101000a900460ff1660ff1660ff1681526020016000820160019054906101000a900473ffffffffffffffffffffffffffffffffffffffff1673ffffffffffffffffffffffffffffffffffffffff1673ffffffffffffffffffffffffffffffffffffffff16815260200160018201548152602001600282018054600181600116156101000203166002900480601f016020809104026020016040519081016040528092919081815260200182805460018160011615610100020316600290048015610e3a5780601f10610e0f57610100808354040283529160200191610e3a565b820191906000526020600020905b815481529060010190602001808311610e1d57829003601f168201915b50505050508152602001600382018054600181600116156101000203166002900480601f016020809104026020016040519081016040528092919081815260200182805460018160011615610100020316600290048015610edc5780601f10610eb157610100808354040283529160200191610edc565b820191906000526020600020905b815481529060010190602001808311610ebf57829003601f168201915b50505050508152505081526020019060010190610d01565b50505050905090565b60005481565b815481835581811115610f3057600402816004028360005260206000209182019101610f2f919061103c565b5b505050565b828054600181600116156101000203166002900490600052602060002090601f016020900481019282601f10610f7657805160ff1916838001178555610fa4565b82800160010185558215610fa4579182015b82811115610fa3578251825591602001919060010190610f88565b5b509050610fb191906110be565b5090565b828054600181600116156101000203166002900490600052602060002090601f016020900481019282601f10610fee578054855561102b565b8280016001018555821561102b57600052602060002091601f016020900482015b8281111561102a57825482559160010191906001019061100f565b5b50905061103891906110be565b5090565b6110bb91905b808211156110b757600080820160006101000a81549060ff02191690556000820160016101000a81549073ffffffffffffffffffffffffffffffffffffffff0219169055600182016000905560028201600061109e91906110e3565b6003820160006110ae91906110e3565b50600401611042565b5090565b90565b6110e091905b808211156110dc5760008160009055506001016110c4565b5090565b90565b50805460018160011615610100020316600290046000825580601f106111095750611128565b601f01602090049060005260206000209081019061112791906110be565b5b50565b600082601f83011261113c57600080fd5b813561114f61114a826114d9565b6114ac565b9150808252602083016020830185838301111561116b57600080fd5b6111768382846115b1565b50505092915050565b60008135905061118e81611604565b92915050565b6000602082840312156111a657600080fd5b60006111b48482850161117f565b91505092915050565b6000806000606084860312156111d257600080fd5b60006111e08682870161117f565b935050602084013567ffffffffffffffff8111156111fd57600080fd5b6112098682870161112b565b925050604084013567ffffffffffffffff81111561122657600080fd5b6112328682870161112b565b9150509250925092565b60006112488383611355565b905092915050565b61125981611568565b82525050565b61126881611568565b82525050565b600061127982611512565b6112838185611535565b93508360208202850161129585611505565b8060005b858110156112d157848403895281516112b2858261123c565b94506112bd83611528565b925060208a01995050600181019050611299565b50829750879550505050505092915050565b60006112ee8261151d565b6112f88185611546565b93506113088185602086016115c0565b611311816115f3565b840191505092915050565b60006113278261151d565b6113318185611557565b93506113418185602086016115c0565b61134a816115f3565b840191505092915050565b600060a08301600083015161136d60008601826113f0565b5060208301516113806020860182611250565b50604083015161139360408601826113d2565b50606083015184820360608601526113ab82826112e3565b915050608083015184820360808601526113c582826112e3565b9150508091505092915050565b6113db8161159a565b82525050565b6113ea8161159a565b82525050565b6113f9816115a4565b82525050565b611408816115a4565b82525050565b60006020820190508181036000830152611428818461126e565b905092915050565b600060208201905061144560008301846113e1565b92915050565b600060a08201905061146060008301886113ff565b61146d602083018761125f565b61147a60408301866113e1565b818103606083015261148c818561131c565b905081810360808301526114a0818461131c565b90509695505050505050565b6000604051905081810181811067ffffffffffffffff821117156114cf57600080fd5b8060405250919050565b600067ffffffffffffffff8211156114f057600080fd5b601f19601f8301169050602081019050919050565b6000602082019050919050565b600081519050919050565b600081519050919050565b6000602082019050919050565b600082825260208201905092915050565b600082825260208201905092915050565b600082825260208201905092915050565b60006115738261157a565b9050919050565b600073ffffffffffffffffffffffffffffffffffffffff82169050919050565b6000819050919050565b600060ff82169050919050565b82818337600083830152505050565b60005b838110156115de5780820151818401526020810190506115c3565b838111156115ed576000848401525b50505050565b6000601f19601f8301169050919050565b61160d8161159a565b811461161857600080fd5b5056fea265627a7a72305820db0bd47d28c7c6f8501612eb14562b4aca6d8db340cfe503e2b5ef575c979aa96c6578706572696d656e74616cf50037",
  "source": "pragma solidity >=0.4.22 <0.6.0;\r\npragma experimental ABIEncoderV2;\r\ncontract initial\r\n{\r\n    struct person {\r\n        string username;\r\n        string email;\r\n        string password;\r\n    }\r\n    function enroll(string memory username,string memory email,string memory password) public returns (bool);\r\n    function login(string memory email, string memory  password)public  ;\r\n}\r\ncontract mybook \r\n{   uint256 public bookscount=0;\r\n    \r\n    struct bookinfo{\r\n       uint8 state; // 1 request ,2-accept,3-reject,0-free\r\n        address a;\r\n        uint256 isbn;\r\n        string author;\r\n        string bookname;\r\n    }\r\n    bookinfo[] public books;\r\n    function addBook(uint256 _isbn, string memory _bookname, string memory _author) public  \r\n      returns(uint) {\r\n           bookscount=bookscount+1;\r\n        books.length++;\r\n        books[books.length-1].state =0;\r\n         books[books.length-1].a=msg.sender;\r\n        books[books.length-1].isbn = _isbn;\r\n        books[books.length-1].bookname= _bookname;\r\n        books[books.length-1].author = _author;\r\n        return books.length;\r\n    }\r\n    function viewallbooks() public  view returns(bookinfo[] memory ) {\r\n        return books;\r\n    }\r\n    bookinfo[] public my;\r\n    function mybooks() public returns(bookinfo[] memory)\r\n    {\r\n             for (uint256 i=0;i<books.length;i++){\r\n                 if(books[i].a==msg.sender)\r\n                 {\r\n                     my.length++;\r\n                     my[my.length-1].state=books[i].state;\r\n                     my[my.length-1].isbn=books[i].isbn;\r\n                     my[my.length-1].bookname=books[i].bookname;\r\n                     my[my.length-1].author=books[i].author;\r\n                     my[my.length-1].a=books[i].a;\r\n                     \r\n                 }\r\n             }\r\n             return my;\r\n    }\r\n     bookinfo[] public s;\r\n     \r\n    \r\n}\r\n\r\ncontract process is mybook\r\n{\r\n    \r\n    function reqbook(uint256 _isbn) public returns(bool){\r\n         for (uint256 i=0;i<books.length;i++){\r\n            \r\n             if(books[i].isbn==_isbn){\r\n                 require(books[i].a!=msg.sender);//can request only if book belongs to another user\r\n                 require(books[i].state==0);//can request only if book is free\r\n                 books[i].state=1;\r\n                 return true;\r\n             }\r\n         }\r\n         return false;\r\n    }\r\n    function accbook(uint256 _isbn) public returns(bool){\r\n         for (uint256 i=0;i<books.length;i++){\r\n             if(books[i].isbn==_isbn  ){\r\n                 require(books[i].state==1);// can accept only if book is requested\r\n                 require(books[i].a==msg.sender);\r\n                 books[i].state=2;\r\n                 return true;\r\n             }\r\n         }\r\n         return false;\r\n    }\r\n    function rejbook(uint256 _isbn) public returns(bool){\r\n         for (uint256 i=0;i<books.length;i++){\r\n             if(books[i].isbn==_isbn){\r\n                 require(books[i].state==1);// can reject only if book is requested\r\n                 require(books[i].state!=2);//cannot reject after accepting\r\n                 require(books[i].a==msg.sender);\r\n                 books[i].state=3;\r\n                 return true;\r\n             }\r\n         }\r\n         return false;\r\n    }\r\n    function viewstatus(uint256 _isbn)public view returns(uint8)\r\n    {\r\n        for (uint256 i=0;i<books.length;i++){\r\n             if(books[i].isbn==_isbn){\r\n                \r\n                 return books[i].state;\r\n             }\r\n         }\r\n         return 4;// not registered book \r\n    }\r\n}",
  "sourcePath": "C:/Users/megha/actual/contracts/Demo.sol",
  "compiler": {
    "name": "solc",
    "version": "0.5.8+commit.23d335f2.Emscripten.clang"
  },
  "schemaVersion": "3.0.10",
  "updatedAt": "2019-06-24T10:07:33.931Z",
  "devdoc": {
    "methods": {}
  },
  "userdoc": {
    "methods": {}
  }
}