{
  "contractName": "process",
  "abi": [
    {
      "constant": false,
      "inputs": [
        {
          "name": "_isbn",
          "type": "uint256"
        },
        {
          "name": "_bookname",
          "type": "string"
        },
        {
          "name": "_author",
          "type": "string"
        }
      ],
      "name": "addBook",
      "outputs": [
        {
          "name": "",
          "type": "uint256"
        }
      ],
      "payable": false,
      "stateMutability": "nonpayable",
      "type": "function"
    },
    {
      "constant": true,
      "inputs": [
        {
          "name": "",
          "type": "uint256"
        }
      ],
      "name": "my",
      "outputs": [
        {
          "name": "state",
          "type": "uint8"
        },
        {
          "name": "a",
          "type": "address"
        },
        {
          "name": "isbn",
          "type": "uint256"
        },
        {
          "name": "author",
          "type": "string"
        },
        {
          "name": "bookname",
          "type": "string"
        }
      ],
      "payable": false,
      "stateMutability": "view",
      "type": "function"
    },
    {
      "constant": true,
      "inputs": [
        {
          "name": "",
          "type": "uint256"
        }
      ],
      "name": "s",
      "outputs": [
        {
          "name": "state",
          "type": "uint8"
        },
        {
          "name": "a",
          "type": "address"
        },
        {
          "name": "isbn",
          "type": "uint256"
        },
        {
          "name": "author",
          "type": "string"
        },
        {
          "name": "bookname",
          "type": "string"
        }
      ],
      "payable": false,
      "stateMutability": "view",
      "type": "function"
    },
    {
      "constant": true,
      "inputs": [
        {
          "name": "",
          "type": "uint256"
        }
      ],
      "name": "books",
      "outputs": [
        {
          "name": "state",
          "type": "uint8"
        },
        {
          "name": "a",
          "type": "address"
        },
        {
          "name": "isbn",
          "type": "uint256"
        },
        {
          "name": "author",
          "type": "string"
        },
        {
          "name": "bookname",
          "type": "string"
        }
      ],
      "payable": false,
      "stateMutability": "view",
      "type": "function"
    },
    {
      "constant": false,
      "inputs": [],
      "name": "mybooks",
      "outputs": [
        {
          "components": [
            {
              "name": "state",
              "type": "uint8"
            },
            {
              "name": "a",
              "type": "address"
            },
            {
              "name": "isbn",
              "type": "uint256"
            },
            {
              "name": "author",
              "type": "string"
            },
            {
              "name": "bookname",
              "type": "string"
            }
          ],
          "name": "",
          "type": "tuple[]"
        }
      ],
      "payable": false,
      "stateMutability": "nonpayable",
      "type": "function"
    },
    {
      "constant": true,
      "inputs": [],
      "name": "viewallbooks",
      "outputs": [
        {
          "components": [
            {
              "name": "state",
              "type": "uint8"
            },
            {
              "name": "a",
              "type": "address"
            },
            {
              "name": "isbn",
              "type": "uint256"
            },
            {
              "name": "author",
              "type": "string"
            },
            {
              "name": "bookname",
              "type": "string"
            }
          ],
          "name": "",
          "type": "tuple[]"
        }
      ],
      "payable": false,
      "stateMutability": "view",
      "type": "function"
    },
    {
      "constant": true,
      "inputs": [],
      "name": "bookscount",
      "outputs": [
        {
          "name": "",
          "type": "uint256"
        }
      ],
      "payable": false,
      "stateMutability": "view",
      "type": "function"
    },
    {
      "constant": false,
      "inputs": [
        {
          "name": "_isbn",
          "type": "uint256"
        }
      ],
      "name": "reqbook",
      "outputs": [
        {
          "name": "",
          "type": "bool"
        }
      ],
      "payable": false,
      "stateMutability": "nonpayable",
      "type": "function"
    },
    {
      "constant": false,
      "inputs": [
        {
          "name": "_isbn",
          "type": "uint256"
        }
      ],
      "name": "accbook",
      "outputs": [
        {
          "name": "",
          "type": "bool"
        }
      ],
      "payable": false,
      "stateMutability": "nonpayable",
      "type": "function"
    },
    {
      "constant": false,
      "inputs": [
        {
          "name": "_isbn",
          "type": "uint256"
        }
      ],
      "name": "rejbook",
      "outputs": [
        {
          "name": "",
          "type": "bool"
        }
      ],
      "payable": false,
      "stateMutability": "nonpayable",
      "type": "function"
    },
    {
      "constant": true,
      "inputs": [
        {
          "name": "_isbn",
          "type": "uint256"
        }
      ],
      "name": "viewstatus",
      "outputs": [
        {
          "name": "",
          "type": "uint8"
        }
      ],
      "payable": false,
      "stateMutability": "view",
      "type": "function"
    }
  ],
  "bytecode": "0x60806040526000805534801561001457600080fd5b50611c25806100246000396000f3fe608060405234801561001057600080fd5b50600436106100a95760003560e01c8063687440461161007157806368744046146101a657806384ca2bec146101da57806399d8422d146101f8578063ba90dfe114610228578063f8c2086014610258578063fab2724914610276576100a9565b8063028414f2146100ae57806311f6fafb146100de578063207c407e146101125780633d5814211461014257806352efd68514610172575b600080fd5b6100c860048036036100c3919081019061173c565b610294565b6040516100d591906119d9565b60405180910390f35b6100f860048036036100f39190810190611713565b610402565b604051610109959493929190611a0f565b60405180910390f35b61012c60048036036101279190810190611713565b6105a2565b60405161013991906119be565b60405180910390f35b61015c60048036036101579190810190611713565b6106e7565b60405161016991906119f4565b60405180910390f35b61018c60048036036101879190810190611713565b61076e565b60405161019d959493929190611a0f565b60405180910390f35b6101c060048036036101bb9190810190611713565b61090e565b6040516101d1959493929190611a0f565b60405180910390f35b6101e2610aae565b6040516101ef919061199c565b60405180910390f35b610212600480360361020d9190810190611713565b610f95565b60405161021f91906119be565b60405180910390f35b610242600480360361023d9190810190611713565b6110db565b60405161024f91906119be565b60405180910390f35b61026061125c565b60405161026d919061199c565b60405180910390f35b61027e61147c565b60405161028b91906119d9565b60405180910390f35b6000600160005401600081905550600180548091906001016102b69190611482565b506000600180808054905003815481106102cc57fe5b906000526020600020906004020160000160006101000a81548160ff021916908360ff160217905550336001808080549050038154811061030957fe5b906000526020600020906004020160000160016101000a81548173ffffffffffffffffffffffffffffffffffffffff021916908373ffffffffffffffffffffffffffffffffffffffff160217905550836001808080549050038154811061036c57fe5b906000526020600020906004020160010181905550826001808080549050038154811061039557fe5b906000526020600020906004020160030190805190602001906103b99291906114b4565b5081600180808054905003815481106103ce57fe5b906000526020600020906004020160020190805190602001906103f29291906114b4565b5060018054905090509392505050565b6002818154811061040f57fe5b90600052602060002090600402016000915090508060000160009054906101000a900460ff16908060000160019054906101000a900473ffffffffffffffffffffffffffffffffffffffff1690806001015490806002018054600181600116156101000203166002900480601f0160208091040260200160405190810160405280929190818152602001828054600181600116156101000203166002900480156104fa5780601f106104cf576101008083540402835291602001916104fa565b820191906000526020600020905b8154815290600101906020018083116104dd57829003601f168201915b505050505090806003018054600181600116156101000203166002900480601f0160208091040260200160405190810160405280929190818152602001828054600181600116156101000203166002900480156105985780601f1061056d57610100808354040283529160200191610598565b820191906000526020600020905b81548152906001019060200180831161057b57829003601f168201915b5050505050905085565b600080600090505b6001805490508110156106dc5782600182815481106105c557fe5b90600052602060002090600402016001015414156106cf5760018082815481106105eb57fe5b906000526020600020906004020160000160009054906101000a900460ff1660ff161461061757600080fd5b3373ffffffffffffffffffffffffffffffffffffffff166001828154811061063b57fe5b906000526020600020906004020160000160019054906101000a900473ffffffffffffffffffffffffffffffffffffffff1673ffffffffffffffffffffffffffffffffffffffff161461068d57600080fd5b60026001828154811061069c57fe5b906000526020600020906004020160000160006101000a81548160ff021916908360ff16021790555060019150506106e2565b80806001019150506105aa565b50600090505b919050565b600080600090505b60018054905081101561076357826001828154811061070a57fe5b9060005260206000209060040201600101541415610756576001818154811061072f57fe5b906000526020600020906004020160000160009054906101000a900460ff16915050610769565b80806001019150506106ef565b50600490505b919050565b6003818154811061077b57fe5b90600052602060002090600402016000915090508060000160009054906101000a900460ff16908060000160019054906101000a900473ffffffffffffffffffffffffffffffffffffffff1690806001015490806002018054600181600116156101000203166002900480601f0160208091040260200160405190810160405280929190818152602001828054600181600116156101000203166002900480156108665780601f1061083b57610100808354040283529160200191610866565b820191906000526020600020905b81548152906001019060200180831161084957829003601f168201915b505050505090806003018054600181600116156101000203166002900480601f0160208091040260200160405190810160405280929190818152602001828054600181600116156101000203166002900480156109045780601f106108d957610100808354040283529160200191610904565b820191906000526020600020905b8154815290600101906020018083116108e757829003601f168201915b5050505050905085565b6001818154811061091b57fe5b90600052602060002090600402016000915090508060000160009054906101000a900460ff16908060000160019054906101000a900473ffffffffffffffffffffffffffffffffffffffff1690806001015490806002018054600181600116156101000203166002900480601f016020809104026020016040519081016040528092919081815260200182805460018160011615610100020316600290048015610a065780601f106109db57610100808354040283529160200191610a06565b820191906000526020600020905b8154815290600101906020018083116109e957829003601f168201915b505050505090806003018054600181600116156101000203166002900480601f016020809104026020016040519081016040528092919081815260200182805460018160011615610100020316600290048015610aa45780601f10610a7957610100808354040283529160200191610aa4565b820191906000526020600020905b815481529060010190602001808311610a8757829003601f168201915b5050505050905085565b606060008090505b600180549050811015610d76573373ffffffffffffffffffffffffffffffffffffffff1660018281548110610ae757fe5b906000526020600020906004020160000160019054906101000a900473ffffffffffffffffffffffffffffffffffffffff1673ffffffffffffffffffffffffffffffffffffffff161415610d695760028054809190600101610b499190611482565b5060018181548110610b5757fe5b906000526020600020906004020160000160009054906101000a900460ff16600260016002805490500381548110610b8b57fe5b906000526020600020906004020160000160006101000a81548160ff021916908360ff16021790555060018181548110610bc157fe5b906000526020600020906004020160010154600260016002805490500381548110610be857fe5b90600052602060002090600402016001018190555060018181548110610c0a57fe5b9060005260206000209060040201600301600260016002805490500381548110610c3057fe5b90600052602060002090600402016003019080546001816001161561010002031660029004610c60929190611534565b5060018181548110610c6e57fe5b9060005260206000209060040201600201600260016002805490500381548110610c9457fe5b90600052602060002090600402016002019080546001816001161561010002031660029004610cc4929190611534565b5060018181548110610cd257fe5b906000526020600020906004020160000160019054906101000a900473ffffffffffffffffffffffffffffffffffffffff16600260016002805490500381548110610d1957fe5b906000526020600020906004020160000160016101000a81548173ffffffffffffffffffffffffffffffffffffffff021916908373ffffffffffffffffffffffffffffffffffffffff1602179055505b8080600101915050610ab6565b506002805480602002602001604051908101604052809291908181526020016000905b82821015610f8c57838290600052602060002090600402016040518060a00160405290816000820160009054906101000a900460ff1660ff1660ff1681526020016000820160019054906101000a900473ffffffffffffffffffffffffffffffffffffffff1673ffffffffffffffffffffffffffffffffffffffff1673ffffffffffffffffffffffffffffffffffffffff16815260200160018201548152602001600282018054600181600116156101000203166002900480601f016020809104026020016040519081016040528092919081815260200182805460018160011615610100020316600290048015610ed25780601f10610ea757610100808354040283529160200191610ed2565b820191906000526020600020905b815481529060010190602001808311610eb557829003601f168201915b50505050508152602001600382018054600181600116156101000203166002900480601f016020809104026020016040519081016040528092919081815260200182805460018160011615610100020316600290048015610f745780601f10610f4957610100808354040283529160200191610f74565b820191906000526020600020905b815481529060010190602001808311610f5757829003601f168201915b50505050508152505081526020019060010190610d99565b50505050905090565b600080600090505b6001805490508110156110d0578260018281548110610fb857fe5b90600052602060002090600402016001015414156110c3573373ffffffffffffffffffffffffffffffffffffffff1660018281548110610ff457fe5b906000526020600020906004020160000160019054906101000a900473ffffffffffffffffffffffffffffffffffffffff1673ffffffffffffffffffffffffffffffffffffffff16141561104757600080fd5b60006001828154811061105657fe5b906000526020600020906004020160000160009054906101000a900460ff1660ff161461108257600080fd5b600180828154811061109057fe5b906000526020600020906004020160000160006101000a81548160ff021916908360ff16021790555060019150506110d6565b8080600101915050610f9d565b50600090505b919050565b600080600090505b6001805490508110156112515782600182815481106110fe57fe5b906000526020600020906004020160010154141561124457600180828154811061112457fe5b906000526020600020906004020160000160009054906101000a900460ff1660ff161461115057600080fd5b60026001828154811061115f57fe5b906000526020600020906004020160000160009054906101000a900460ff1660ff16141561118c57600080fd5b3373ffffffffffffffffffffffffffffffffffffffff16600182815481106111b057fe5b906000526020600020906004020160000160019054906101000a900473ffffffffffffffffffffffffffffffffffffffff1673ffffffffffffffffffffffffffffffffffffffff161461120257600080fd5b60036001828154811061121157fe5b906000526020600020906004020160000160006101000a81548160ff021916908360ff1602179055506001915050611257565b80806001019150506110e3565b50600090505b919050565b60606001805480602002602001604051908101604052809291908181526020016000905b8282101561147357838290600052602060002090600402016040518060a00160405290816000820160009054906101000a900460ff1660ff1660ff1681526020016000820160019054906101000a900473ffffffffffffffffffffffffffffffffffffffff1673ffffffffffffffffffffffffffffffffffffffff1673ffffffffffffffffffffffffffffffffffffffff16815260200160018201548152602001600282018054600181600116156101000203166002900480601f0160208091040260200160405190810160405280929190818152602001828054600181600116156101000203166002900480156113b95780601f1061138e576101008083540402835291602001916113b9565b820191906000526020600020905b81548152906001019060200180831161139c57829003601f168201915b50505050508152602001600382018054600181600116156101000203166002900480601f01602080910402602001604051908101604052809291908181526020018280546001816001161561010002031660029004801561145b5780601f106114305761010080835404028352916020019161145b565b820191906000526020600020905b81548152906001019060200180831161143e57829003601f168201915b50505050508152505081526020019060010190611280565b50505050905090565b60005481565b8154818355818111156114af576004028160040283600052602060002091820191016114ae91906115bb565b5b505050565b828054600181600116156101000203166002900490600052602060002090601f016020900481019282601f106114f557805160ff1916838001178555611523565b82800160010185558215611523579182015b82811115611522578251825591602001919060010190611507565b5b509050611530919061163d565b5090565b828054600181600116156101000203166002900490600052602060002090601f016020900481019282601f1061156d57805485556115aa565b828001600101855582156115aa57600052602060002091601f016020900482015b828111156115a957825482559160010191906001019061158e565b5b5090506115b7919061163d565b5090565b61163a91905b8082111561163657600080820160006101000a81549060ff02191690556000820160016101000a81549073ffffffffffffffffffffffffffffffffffffffff0219169055600182016000905560028201600061161d9190611662565b60038201600061162d9190611662565b506004016115c1565b5090565b90565b61165f91905b8082111561165b576000816000905550600101611643565b5090565b90565b50805460018160011615610100020316600290046000825580601f1061168857506116a7565b601f0160209004906000526020600020908101906116a6919061163d565b5b50565b600082601f8301126116bb57600080fd5b81356116ce6116c982611a9d565b611a70565b915080825260208301602083018583830111156116ea57600080fd5b6116f5838284611b81565b50505092915050565b60008135905061170d81611bd4565b92915050565b60006020828403121561172557600080fd5b6000611733848285016116fe565b91505092915050565b60008060006060848603121561175157600080fd5b600061175f868287016116fe565b935050602084013567ffffffffffffffff81111561177c57600080fd5b611788868287016116aa565b925050604084013567ffffffffffffffff8111156117a557600080fd5b6117b1868287016116aa565b9150509250925092565b60006117c783836118e3565b905092915050565b6117d881611b2c565b82525050565b6117e781611b2c565b82525050565b60006117f882611ad6565b6118028185611af9565b93508360208202850161181485611ac9565b8060005b85811015611850578484038952815161183185826117bb565b945061183c83611aec565b925060208a01995050600181019050611818565b50829750879550505050505092915050565b61186b81611b3e565b82525050565b600061187c82611ae1565b6118868185611b0a565b9350611896818560208601611b90565b61189f81611bc3565b840191505092915050565b60006118b582611ae1565b6118bf8185611b1b565b93506118cf818560208601611b90565b6118d881611bc3565b840191505092915050565b600060a0830160008301516118fb600086018261197e565b50602083015161190e60208601826117cf565b5060408301516119216040860182611960565b50606083015184820360608601526119398282611871565b915050608083015184820360808601526119538282611871565b9150508091505092915050565b61196981611b6a565b82525050565b61197881611b6a565b82525050565b61198781611b74565b82525050565b61199681611b74565b82525050565b600060208201905081810360008301526119b681846117ed565b905092915050565b60006020820190506119d36000830184611862565b92915050565b60006020820190506119ee600083018461196f565b92915050565b6000602082019050611a09600083018461198d565b92915050565b600060a082019050611a24600083018861198d565b611a3160208301876117de565b611a3e604083018661196f565b8181036060830152611a5081856118aa565b90508181036080830152611a6481846118aa565b90509695505050505050565b6000604051905081810181811067ffffffffffffffff82111715611a9357600080fd5b8060405250919050565b600067ffffffffffffffff821115611ab457600080fd5b601f19601f8301169050602081019050919050565b6000602082019050919050565b600081519050919050565b600081519050919050565b6000602082019050919050565b600082825260208201905092915050565b600082825260208201905092915050565b600082825260208201905092915050565b6000611b3782611b4a565b9050919050565b60008115159050919050565b600073ffffffffffffffffffffffffffffffffffffffff82169050919050565b6000819050919050565b600060ff82169050919050565b82818337600083830152505050565b60005b83811015611bae578082015181840152602081019050611b93565b83811115611bbd576000848401525b50505050565b6000601f19601f8301169050919050565b611bdd81611b6a565b8114611be857600080fd5b5056fea265627a7a72305820ca907da44e7d8c55754b6bf3f9a6a08fc66892f485340ec6f9a3351151e0b73c6c6578706572696d656e74616cf50037",
  "source": "pragma solidity >=0.4.22 <0.6.0;\r\npragma experimental ABIEncoderV2;\r\ncontract initial\r\n{\r\n    struct person {\r\n        string username;\r\n        string email;\r\n        string password;\r\n    }\r\n    function enroll(string memory username,string memory email,string memory password) public returns (bool);\r\n    function login(string memory email, string memory  password)public  ;\r\n}\r\ncontract mybook \r\n{   uint256 public bookscount=0;\r\n    \r\n    struct bookinfo{\r\n       uint8 state; // 1 request ,2-accept,3-reject,0-free\r\n        address a;\r\n        uint256 isbn;\r\n        string author;\r\n        string bookname;\r\n    }\r\n    bookinfo[] public books;\r\n    function addBook(uint256 _isbn, string memory _bookname, string memory _author) public  \r\n      returns(uint) {\r\n           bookscount=bookscount+1;\r\n        books.length++;\r\n        books[books.length-1].state =0;\r\n         books[books.length-1].a=msg.sender;\r\n        books[books.length-1].isbn = _isbn;\r\n        books[books.length-1].bookname= _bookname;\r\n        books[books.length-1].author = _author;\r\n        return books.length;\r\n    }\r\n    function viewallbooks() public  view returns(bookinfo[] memory ) {\r\n        return books;\r\n    }\r\n    bookinfo[] public my;\r\n    function mybooks() public returns(bookinfo[] memory)\r\n    {\r\n             for (uint256 i=0;i<books.length;i++){\r\n                 if(books[i].a==msg.sender)\r\n                 {\r\n                     my.length++;\r\n                     my[my.length-1].state=books[i].state;\r\n                     my[my.length-1].isbn=books[i].isbn;\r\n                     my[my.length-1].bookname=books[i].bookname;\r\n                     my[my.length-1].author=books[i].author;\r\n                     my[my.length-1].a=books[i].a;\r\n                     \r\n                 }\r\n             }\r\n             return my;\r\n    }\r\n     bookinfo[] public s;\r\n     \r\n    \r\n}\r\n\r\ncontract process is mybook\r\n{\r\n    \r\n    function reqbook(uint256 _isbn) public returns(bool){\r\n         for (uint256 i=0;i<books.length;i++){\r\n            \r\n             if(books[i].isbn==_isbn){\r\n                 require(books[i].a!=msg.sender);//can request only if book belongs to another user\r\n                 require(books[i].state==0);//can request only if book is free\r\n                 books[i].state=1;\r\n                 return true;\r\n             }\r\n         }\r\n         return false;\r\n    }\r\n    function accbook(uint256 _isbn) public returns(bool){\r\n         for (uint256 i=0;i<books.length;i++){\r\n             if(books[i].isbn==_isbn  ){\r\n                 require(books[i].state==1);// can accept only if book is requested\r\n                 require(books[i].a==msg.sender);\r\n                 books[i].state=2;\r\n                 return true;\r\n             }\r\n         }\r\n         return false;\r\n    }\r\n    function rejbook(uint256 _isbn) public returns(bool){\r\n         for (uint256 i=0;i<books.length;i++){\r\n             if(books[i].isbn==_isbn){\r\n                 require(books[i].state==1);// can reject only if book is requested\r\n                 require(books[i].state!=2);//cannot reject after accepting\r\n                 require(books[i].a==msg.sender);\r\n                 books[i].state=3;\r\n                 return true;\r\n             }\r\n         }\r\n         return false;\r\n    }\r\n    function viewstatus(uint256 _isbn)public view returns(uint8)\r\n    {\r\n        for (uint256 i=0;i<books.length;i++){\r\n             if(books[i].isbn==_isbn){\r\n                \r\n                 return books[i].state;\r\n             }\r\n         }\r\n         return 4;// not registered book \r\n    }\r\n}",
  "sourcePath": "C:/Users/megha/actual/contracts/Demo.sol",
  "compiler": {
    "name": "solc",
    "version": "0.5.8+commit.23d335f2.Emscripten.clang"
  },
  "schemaVersion": "3.0.10",
  "updatedAt": "2019-06-24T10:07:35.699Z",
  "devdoc": {
    "methods": {}
  },
  "userdoc": {
    "methods": {}
  }
}